{
    "_format": "hh-sol-artifact-1",
    "contractName": "CharacterCreation",
    "sourceName": "contracts/CharacterCreation.sol",
    "abi": [
        {
            "inputs": [
                {
                    "internalType": "string",
                    "name": "bossName",
                    "type": "string"
                },
                {
                    "internalType": "string",
                    "name": "bossImageURI",
                    "type": "string"
                },
                {
                    "internalType": "uint256",
                    "name": "bossHp",
                    "type": "uint256"
                },
                {
                    "internalType": "uint256",
                    "name": "bossAttackDamage",
                    "type": "uint256"
                }
            ],
            "stateMutability": "nonpayable",
            "type": "constructor"
        },
        {
            "anonymous": false,
            "inputs": [
                {
                    "indexed": true,
                    "internalType": "address",
                    "name": "owner",
                    "type": "address"
                },
                {
                    "indexed": true,
                    "internalType": "address",
                    "name": "approved",
                    "type": "address"
                },
                {
                    "indexed": true,
                    "internalType": "uint256",
                    "name": "tokenId",
                    "type": "uint256"
                }
            ],
            "name": "Approval",
            "type": "event"
        },
        {
            "anonymous": false,
            "inputs": [
                {
                    "indexed": true,
                    "internalType": "address",
                    "name": "owner",
                    "type": "address"
                },
                {
                    "indexed": true,
                    "internalType": "address",
                    "name": "operator",
                    "type": "address"
                },
                {
                    "indexed": false,
                    "internalType": "bool",
                    "name": "approved",
                    "type": "bool"
                }
            ],
            "name": "ApprovalForAll",
            "type": "event"
        },
        {
            "anonymous": false,
            "inputs": [
                {
                    "indexed": false,
                    "internalType": "address",
                    "name": "sender",
                    "type": "address"
                },
                {
                    "indexed": false,
                    "internalType": "uint256",
                    "name": "newBossHp",
                    "type": "uint256"
                },
                {
                    "indexed": false,
                    "internalType": "uint256",
                    "name": "newPlayerHp",
                    "type": "uint256"
                }
            ],
            "name": "AttackComplete",
            "type": "event"
        },
        {
            "anonymous": false,
            "inputs": [
                {
                    "indexed": false,
                    "internalType": "address",
                    "name": "sender",
                    "type": "address"
                },
                {
                    "indexed": false,
                    "internalType": "uint256",
                    "name": "tokenId",
                    "type": "uint256"
                },
                {
                    "indexed": false,
                    "internalType": "uint256",
                    "name": "characterIndex",
                    "type": "uint256"
                }
            ],
            "name": "CharacterNFTMinted",
            "type": "event"
        },
        {
            "anonymous": false,
            "inputs": [
                {
                    "indexed": false,
                    "internalType": "uint256",
                    "name": "id",
                    "type": "uint256"
                },
                {
                    "indexed": false,
                    "internalType": "string",
                    "name": "name",
                    "type": "string"
                },
                {
                    "indexed": false,
                    "internalType": "uint256",
                    "name": "dna",
                    "type": "uint256"
                },
                {
                    "indexed": false,
                    "internalType": "uint256",
                    "name": "maxHp",
                    "type": "uint256"
                },
                {
                    "indexed": false,
                    "internalType": "uint256",
                    "name": "attackDamage",
                    "type": "uint256"
                }
            ],
            "name": "NewCharacter",
            "type": "event"
        },
        {
            "anonymous": false,
            "inputs": [
                {
                    "indexed": true,
                    "internalType": "address",
                    "name": "from",
                    "type": "address"
                },
                {
                    "indexed": true,
                    "internalType": "address",
                    "name": "to",
                    "type": "address"
                },
                {
                    "indexed": true,
                    "internalType": "uint256",
                    "name": "tokenId",
                    "type": "uint256"
                }
            ],
            "name": "Transfer",
            "type": "event"
        },
        {
            "inputs": [
                {
                    "internalType": "string",
                    "name": "_str",
                    "type": "string"
                }
            ],
            "name": "_generateRandomAD",
            "outputs": [
                {
                    "internalType": "uint256",
                    "name": "",
                    "type": "uint256"
                }
            ],
            "stateMutability": "view",
            "type": "function"
        },
        {
            "inputs": [
                {
                    "internalType": "string",
                    "name": "_str",
                    "type": "string"
                }
            ],
            "name": "_generateRandomDNA",
            "outputs": [
                {
                    "internalType": "uint256",
                    "name": "",
                    "type": "uint256"
                }
            ],
            "stateMutability": "view",
            "type": "function"
        },
        {
            "inputs": [
                {
                    "internalType": "string",
                    "name": "_str",
                    "type": "string"
                }
            ],
            "name": "_generateRandomHp",
            "outputs": [
                {
                    "internalType": "uint256",
                    "name": "",
                    "type": "uint256"
                }
            ],
            "stateMutability": "view",
            "type": "function"
        },
        {
            "inputs": [
                {
                    "internalType": "address",
                    "name": "to",
                    "type": "address"
                },
                {
                    "internalType": "uint256",
                    "name": "tokenId",
                    "type": "uint256"
                }
            ],
            "name": "approve",
            "outputs": [],
            "stateMutability": "nonpayable",
            "type": "function"
        },
        {
            "inputs": [],
            "name": "attackBoss",
            "outputs": [],
            "stateMutability": "nonpayable",
            "type": "function"
        },
        {
            "inputs": [
                {
                    "internalType": "address",
                    "name": "owner",
                    "type": "address"
                }
            ],
            "name": "balanceOf",
            "outputs": [
                {
                    "internalType": "uint256",
                    "name": "",
                    "type": "uint256"
                }
            ],
            "stateMutability": "view",
            "type": "function"
        },
        {
            "inputs": [],
            "name": "bigBoss",
            "outputs": [
                {
                    "internalType": "string",
                    "name": "name",
                    "type": "string"
                },
                {
                    "internalType": "string",
                    "name": "imageURI",
                    "type": "string"
                },
                {
                    "internalType": "uint256",
                    "name": "hp",
                    "type": "uint256"
                },
                {
                    "internalType": "uint256",
                    "name": "maxHp",
                    "type": "uint256"
                },
                {
                    "internalType": "uint256",
                    "name": "attackDamage",
                    "type": "uint256"
                }
            ],
            "stateMutability": "view",
            "type": "function"
        },
        {
            "inputs": [
                {
                    "internalType": "uint256",
                    "name": "",
                    "type": "uint256"
                }
            ],
            "name": "characters",
            "outputs": [
                {
                    "internalType": "uint256",
                    "name": "id",
                    "type": "uint256"
                },
                {
                    "internalType": "string",
                    "name": "fstName",
                    "type": "string"
                },
                {
                    "internalType": "string",
                    "name": "lstName",
                    "type": "string"
                },
                {
                    "internalType": "uint256",
                    "name": "hp",
                    "type": "uint256"
                },
                {
                    "internalType": "uint256",
                    "name": "maxHp",
                    "type": "uint256"
                },
                {
                    "internalType": "uint256",
                    "name": "attackDamage",
                    "type": "uint256"
                },
                {
                    "internalType": "uint256",
                    "name": "level",
                    "type": "uint256"
                },
                {
                    "internalType": "uint256",
                    "name": "exp",
                    "type": "uint256"
                },
                {
                    "internalType": "uint256",
                    "name": "dna",
                    "type": "uint256"
                }
            ],
            "stateMutability": "view",
            "type": "function"
        },
        {
            "inputs": [],
            "name": "checkIfUserHasNFT",
            "outputs": [
                {
                    "components": [
                        {
                            "internalType": "uint256",
                            "name": "id",
                            "type": "uint256"
                        },
                        {
                            "internalType": "string",
                            "name": "fstName",
                            "type": "string"
                        },
                        {
                            "internalType": "string",
                            "name": "lstName",
                            "type": "string"
                        },
                        {
                            "internalType": "uint256",
                            "name": "hp",
                            "type": "uint256"
                        },
                        {
                            "internalType": "uint256",
                            "name": "maxHp",
                            "type": "uint256"
                        },
                        {
                            "internalType": "uint256",
                            "name": "attackDamage",
                            "type": "uint256"
                        },
                        {
                            "internalType": "uint256",
                            "name": "level",
                            "type": "uint256"
                        },
                        {
                            "internalType": "uint256",
                            "name": "exp",
                            "type": "uint256"
                        },
                        {
                            "internalType": "uint256",
                            "name": "dna",
                            "type": "uint256"
                        }
                    ],
                    "internalType": "struct CharacterCreation.CharacterAttributes",
                    "name": "",
                    "type": "tuple"
                }
            ],
            "stateMutability": "view",
            "type": "function"
        },
        {
            "inputs": [
                {
                    "internalType": "string",
                    "name": "_fstName",
                    "type": "string"
                },
                {
                    "internalType": "string",
                    "name": "_lstName",
                    "type": "string"
                }
            ],
            "name": "createRandomCharacter",
            "outputs": [],
            "stateMutability": "nonpayable",
            "type": "function"
        },
        {
            "inputs": [],
            "name": "getAllDefaultCharacters",
            "outputs": [
                {
                    "components": [
                        {
                            "internalType": "uint256",
                            "name": "id",
                            "type": "uint256"
                        },
                        {
                            "internalType": "string",
                            "name": "fstName",
                            "type": "string"
                        },
                        {
                            "internalType": "string",
                            "name": "lstName",
                            "type": "string"
                        },
                        {
                            "internalType": "uint256",
                            "name": "hp",
                            "type": "uint256"
                        },
                        {
                            "internalType": "uint256",
                            "name": "maxHp",
                            "type": "uint256"
                        },
                        {
                            "internalType": "uint256",
                            "name": "attackDamage",
                            "type": "uint256"
                        },
                        {
                            "internalType": "uint256",
                            "name": "level",
                            "type": "uint256"
                        },
                        {
                            "internalType": "uint256",
                            "name": "exp",
                            "type": "uint256"
                        },
                        {
                            "internalType": "uint256",
                            "name": "dna",
                            "type": "uint256"
                        }
                    ],
                    "internalType": "struct CharacterCreation.CharacterAttributes[]",
                    "name": "",
                    "type": "tuple[]"
                }
            ],
            "stateMutability": "view",
            "type": "function"
        },
        {
            "inputs": [
                {
                    "internalType": "uint256",
                    "name": "tokenId",
                    "type": "uint256"
                }
            ],
            "name": "getApproved",
            "outputs": [
                {
                    "internalType": "address",
                    "name": "",
                    "type": "address"
                }
            ],
            "stateMutability": "view",
            "type": "function"
        },
        {
            "inputs": [],
            "name": "getBigBoss",
            "outputs": [
                {
                    "components": [
                        {
                            "internalType": "string",
                            "name": "name",
                            "type": "string"
                        },
                        {
                            "internalType": "string",
                            "name": "imageURI",
                            "type": "string"
                        },
                        {
                            "internalType": "uint256",
                            "name": "hp",
                            "type": "uint256"
                        },
                        {
                            "internalType": "uint256",
                            "name": "maxHp",
                            "type": "uint256"
                        },
                        {
                            "internalType": "uint256",
                            "name": "attackDamage",
                            "type": "uint256"
                        }
                    ],
                    "internalType": "struct CharacterCreation.BigBoss",
                    "name": "",
                    "type": "tuple"
                }
            ],
            "stateMutability": "view",
            "type": "function"
        },
        {
            "inputs": [
                {
                    "internalType": "address",
                    "name": "owner",
                    "type": "address"
                },
                {
                    "internalType": "address",
                    "name": "operator",
                    "type": "address"
                }
            ],
            "name": "isApprovedForAll",
            "outputs": [
                {
                    "internalType": "bool",
                    "name": "",
                    "type": "bool"
                }
            ],
            "stateMutability": "view",
            "type": "function"
        },
        {
            "inputs": [
                {
                    "internalType": "uint256",
                    "name": "_characterIndex",
                    "type": "uint256"
                }
            ],
            "name": "mintCharacterNFT",
            "outputs": [],
            "stateMutability": "nonpayable",
            "type": "function"
        },
        {
            "inputs": [],
            "name": "name",
            "outputs": [
                {
                    "internalType": "string",
                    "name": "",
                    "type": "string"
                }
            ],
            "stateMutability": "view",
            "type": "function"
        },
        {
            "inputs": [
                {
                    "internalType": "uint256",
                    "name": "",
                    "type": "uint256"
                }
            ],
            "name": "nftHolderAttributes",
            "outputs": [
                {
                    "internalType": "uint256",
                    "name": "id",
                    "type": "uint256"
                },
                {
                    "internalType": "string",
                    "name": "fstName",
                    "type": "string"
                },
                {
                    "internalType": "string",
                    "name": "lstName",
                    "type": "string"
                },
                {
                    "internalType": "uint256",
                    "name": "hp",
                    "type": "uint256"
                },
                {
                    "internalType": "uint256",
                    "name": "maxHp",
                    "type": "uint256"
                },
                {
                    "internalType": "uint256",
                    "name": "attackDamage",
                    "type": "uint256"
                },
                {
                    "internalType": "uint256",
                    "name": "level",
                    "type": "uint256"
                },
                {
                    "internalType": "uint256",
                    "name": "exp",
                    "type": "uint256"
                },
                {
                    "internalType": "uint256",
                    "name": "dna",
                    "type": "uint256"
                }
            ],
            "stateMutability": "view",
            "type": "function"
        },
        {
            "inputs": [
                {
                    "internalType": "address",
                    "name": "",
                    "type": "address"
                }
            ],
            "name": "nftHolders",
            "outputs": [
                {
                    "internalType": "uint256",
                    "name": "",
                    "type": "uint256"
                }
            ],
            "stateMutability": "view",
            "type": "function"
        },
        {
            "inputs": [
                {
                    "internalType": "uint256",
                    "name": "tokenId",
                    "type": "uint256"
                }
            ],
            "name": "ownerOf",
            "outputs": [
                {
                    "internalType": "address",
                    "name": "",
                    "type": "address"
                }
            ],
            "stateMutability": "view",
            "type": "function"
        },
        {
            "inputs": [
                {
                    "internalType": "address",
                    "name": "from",
                    "type": "address"
                },
                {
                    "internalType": "address",
                    "name": "to",
                    "type": "address"
                },
                {
                    "internalType": "uint256",
                    "name": "tokenId",
                    "type": "uint256"
                }
            ],
            "name": "safeTransferFrom",
            "outputs": [],
            "stateMutability": "nonpayable",
            "type": "function"
        },
        {
            "inputs": [
                {
                    "internalType": "address",
                    "name": "from",
                    "type": "address"
                },
                {
                    "internalType": "address",
                    "name": "to",
                    "type": "address"
                },
                {
                    "internalType": "uint256",
                    "name": "tokenId",
                    "type": "uint256"
                },
                {
                    "internalType": "bytes",
                    "name": "data",
                    "type": "bytes"
                }
            ],
            "name": "safeTransferFrom",
            "outputs": [],
            "stateMutability": "nonpayable",
            "type": "function"
        },
        {
            "inputs": [
                {
                    "internalType": "address",
                    "name": "operator",
                    "type": "address"
                },
                {
                    "internalType": "bool",
                    "name": "approved",
                    "type": "bool"
                }
            ],
            "name": "setApprovalForAll",
            "outputs": [],
            "stateMutability": "nonpayable",
            "type": "function"
        },
        {
            "inputs": [
                {
                    "internalType": "bytes4",
                    "name": "interfaceId",
                    "type": "bytes4"
                }
            ],
            "name": "supportsInterface",
            "outputs": [
                {
                    "internalType": "bool",
                    "name": "",
                    "type": "bool"
                }
            ],
            "stateMutability": "view",
            "type": "function"
        },
        {
            "inputs": [],
            "name": "symbol",
            "outputs": [
                {
                    "internalType": "string",
                    "name": "",
                    "type": "string"
                }
            ],
            "stateMutability": "view",
            "type": "function"
        },
        {
            "inputs": [
                {
                    "internalType": "uint256",
                    "name": "_tokenId",
                    "type": "uint256"
                }
            ],
            "name": "tokenURI",
            "outputs": [
                {
                    "internalType": "string",
                    "name": "",
                    "type": "string"
                }
            ],
            "stateMutability": "view",
            "type": "function"
        },
        {
            "inputs": [
                {
                    "internalType": "address",
                    "name": "from",
                    "type": "address"
                },
                {
                    "internalType": "address",
                    "name": "to",
                    "type": "address"
                },
                {
                    "internalType": "uint256",
                    "name": "tokenId",
                    "type": "uint256"
                }
            ],
            "name": "transferFrom",
            "outputs": [],
            "stateMutability": "nonpayable",
            "type": "function"
        }
    ],
    "bytecode": "0x6080604052600360065560026007556010600855600654600a62000024919062000352565b600955600754600a62000038919062000352565b600a55600854600a6200004c919062000352565b600b553480156200005c57600080fd5b5060405162005c1538038062005c15833981810160405281019062000082919062000567565b6040518060400160405280600781526020017f5a6f6d52656e61000000000000000000000000000000000000000000000000008152506040518060400160405280600281526020017f5a520000000000000000000000000000000000000000000000000000000000008152508160009081620000ff919062000858565b50806001908162000111919062000858565b5050506040518060a0016040528085815260200184815260200183815260200183815260200182815250600c600082015181600001908162000154919062000858565b5060208201518160010190816200016c919062000858565b50604082015181600201556060820151816003015560808201518160040155905050620001a56011620001af60201b6200201b1760201c565b505050506200093f565b6001816000016000828254019250508190555050565b7f4e487b7100000000000000000000000000000000000000000000000000000000600052601160045260246000fd5b60008160011c9050919050565b6000808291508390505b600185111562000253578086048111156200022b576200022a620001c5565b5b60018516156200023b5780820291505b80810290506200024b85620001f4565b94506200020b565b94509492505050565b6000826200026e576001905062000341565b816200027e576000905062000341565b8160018114620002975760028114620002a257620002d8565b600191505062000341565b60ff841115620002b757620002b6620001c5565b5b8360020a915084821115620002d157620002d0620001c5565b5b5062000341565b5060208310610133831016604e8410600b8410161715620003125782820a9050838111156200030c576200030b620001c5565b5b62000341565b62000321848484600162000201565b925090508184048111156200033b576200033a620001c5565b5b81810290505b9392505050565b6000819050919050565b60006200035f8262000348565b91506200036c8362000348565b92506200039b7fffffffffffffffffffffffffffffffffffffffffffffffffffffffffffffffff84846200025c565b905092915050565b6000604051905090565b600080fd5b600080fd5b600080fd5b600080fd5b6000601f19601f8301169050919050565b7f4e487b7100000000000000000000000000000000000000000000000000000000600052604160045260246000fd5b6200040c82620003c1565b810181811067ffffffffffffffff821117156200042e576200042d620003d2565b5b80604052505050565b600062000443620003a3565b905062000451828262000401565b919050565b600067ffffffffffffffff821115620004745762000473620003d2565b5b6200047f82620003c1565b9050602081019050919050565b60005b83811015620004ac5780820151818401526020810190506200048f565b60008484015250505050565b6000620004cf620004c98462000456565b62000437565b905082815260208101848484011115620004ee57620004ed620003bc565b5b620004fb8482856200048c565b509392505050565b600082601f8301126200051b576200051a620003b7565b5b81516200052d848260208601620004b8565b91505092915050565b620005418162000348565b81146200054d57600080fd5b50565b600081519050620005618162000536565b92915050565b60008060008060808587031215620005845762000583620003ad565b5b600085015167ffffffffffffffff811115620005a557620005a4620003b2565b5b620005b38782880162000503565b945050602085015167ffffffffffffffff811115620005d757620005d6620003b2565b5b620005e58782880162000503565b9350506040620005f88782880162000550565b92505060606200060b8782880162000550565b91505092959194509250565b600081519050919050565b7f4e487b7100000000000000000000000000000000000000000000000000000000600052602260045260246000fd5b600060028204905060018216806200066a57607f821691505b60208210810362000680576200067f62000622565b5b50919050565b60008190508160005260206000209050919050565b60006020601f8301049050919050565b600082821b905092915050565b600060088302620006ea7fffffffffffffffffffffffffffffffffffffffffffffffffffffffffffffffff82620006ab565b620006f68683620006ab565b95508019841693508086168417925050509392505050565b6000819050919050565b600062000739620007336200072d8462000348565b6200070e565b62000348565b9050919050565b6000819050919050565b620007558362000718565b6200076d620007648262000740565b848454620006b8565b825550505050565b600090565b6200078462000775565b620007918184846200074a565b505050565b5b81811015620007b957620007ad6000826200077a565b60018101905062000797565b5050565b601f8211156200080857620007d28162000686565b620007dd846200069b565b81016020851015620007ed578190505b62000805620007fc856200069b565b83018262000796565b50505b505050565b600082821c905092915050565b60006200082d600019846008026200080d565b1980831691505092915050565b60006200084883836200081a565b9150826002028217905092915050565b620008638262000617565b67ffffffffffffffff8111156200087f576200087e620003d2565b5b6200088b825462000651565b62000898828285620007bd565b600060209050601f831160018114620008d05760008415620008bb578287015190505b620008c785826200083a565b86555062000937565b601f198416620008e08662000686565b60005b828110156200090a57848901518255600182019150602085019450602081019050620008e3565b868310156200092a578489015162000926601f8916826200081a565b8355505b6001600288020188555050505b505050505050565b6152c6806200094f6000396000f3fe608060405234801561001057600080fd5b506004361061018e5760003560e01c806398da4c95116100de578063c8cf27f411610097578063dbbe9a8311610071578063dbbe9a83146104bd578063e985e9c5146104ed578063f6425cc11461051d578063f8b81ef71461054d5761018e565b8063c8cf27f414610465578063d4f24c5b14610483578063d99152de1461048d5761018e565b806398da4c9514610385578063a22cb465146103bd578063a9c32679146103d9578063b88d4fde146103fb578063b953084e14610417578063c87b56dd146104355761018e565b806342842e0e1161014b5780636352211e116101255780636352211e146102d757806370a08231146103075780637df124a11461033757806395d89b41146103675761018e565b806342842e0e146102675780634810bc59146102835780634d991aa3146102bb5761018e565b806301ffc9a7146101935780630665f961146101c357806306fdde03146101e1578063081812fc146101ff578063095ea7b31461022f57806323b872dd1461024b575b600080fd5b6101ad60048036038101906101a891906133b1565b610569565b6040516101ba91906133f9565b60405180910390f35b6101cb61064b565b6040516101d8919061353a565b60405180910390f35b6101e96107a7565b6040516101f691906135a6565b60405180910390f35b610219600480360381019061021491906135f4565b610839565b6040516102269190613662565b60405180910390f35b610249600480360381019061024491906136a9565b61087f565b005b610265600480360381019061026091906136e9565b610996565b005b610281600480360381019061027c91906136e9565b6109f6565b005b61029d600480360381019061029891906135f4565b610a16565b6040516102b29998979695949392919061374b565b60405180910390f35b6102d560048036038101906102d0919061391b565b610b84565b005b6102f160048036038101906102ec91906135f4565b610bbf565b6040516102fe9190613662565b60405180910390f35b610321600480360381019061031c9190613993565b610c45565b60405161032e91906139c0565b60405180910390f35b610351600480360381019061034c9190613993565b610cfc565b60405161035e91906139c0565b60405180910390f35b61036f610d14565b60405161037c91906135a6565b60405180910390f35b61039f600480360381019061039a91906135f4565b610da6565b6040516103b49998979695949392919061374b565b60405180910390f35b6103d760048036038101906103d29190613a07565b610f04565b005b6103e1610f1a565b6040516103f2959493929190613a47565b60405180910390f35b61041560048036038101906104109190613b49565b61104e565b005b61041f6110b0565b60405161042c9190613d5a565b60405180910390f35b61044f600480360381019061044a91906135f4565b61127a565b60405161045c91906135a6565b60405180910390f35b61046d6114dc565b60405161047a9190613e48565b60405180910390f35b61048b6116d3565b005b6104a760048036038101906104a29190613e6a565b611b12565b6040516104b491906139c0565b60405180910390f35b6104d760048036038101906104d29190613e6a565b611b57565b6040516104e491906139c0565b60405180910390f35b61050760048036038101906105029190613eb3565b611b9c565b60405161051491906133f9565b60405180910390f35b61053760048036038101906105329190613e6a565b611c30565b60405161054491906139c0565b60405180910390f35b610567600480360381019061056291906135f4565b611c75565b005b60007f80ac58cd000000000000000000000000000000000000000000000000000000007bffffffffffffffffffffffffffffffffffffffffffffffffffffffff1916827bffffffffffffffffffffffffffffffffffffffffffffffffffffffff1916148061063457507f5b5e139f000000000000000000000000000000000000000000000000000000007bffffffffffffffffffffffffffffffffffffffffffffffffffffffff1916827bffffffffffffffffffffffffffffffffffffffffffffffffffffffff1916145b80610644575061064382612031565b5b9050919050565b6106536132ca565b600c6040518060a001604052908160008201805461067090613f22565b80601f016020809104026020016040519081016040528092919081815260200182805461069c90613f22565b80156106e95780601f106106be576101008083540402835291602001916106e9565b820191906000526020600020905b8154815290600101906020018083116106cc57829003601f168201915b5050505050815260200160018201805461070290613f22565b80601f016020809104026020016040519081016040528092919081815260200182805461072e90613f22565b801561077b5780601f106107505761010080835404028352916020019161077b565b820191906000526020600020905b81548152906001019060200180831161075e57829003601f168201915b505050505081526020016002820154815260200160038201548152602001600482015481525050905090565b6060600080546107b690613f22565b80601f01602080910402602001604051908101604052809291908181526020018280546107e290613f22565b801561082f5780601f106108045761010080835404028352916020019161082f565b820191906000526020600020905b81548152906001019060200180831161081257829003601f168201915b5050505050905090565b60006108448261209b565b6004600083815260200190815260200160002060009054906101000a900473ffffffffffffffffffffffffffffffffffffffff169050919050565b600061088a82610bbf565b90508073ffffffffffffffffffffffffffffffffffffffff168373ffffffffffffffffffffffffffffffffffffffff16036108fa576040517f08c379a00000000000000000000000000000000000000000000000000000000081526004016108f190613fc5565b60405180910390fd5b8073ffffffffffffffffffffffffffffffffffffffff166109196120e6565b73ffffffffffffffffffffffffffffffffffffffff1614806109485750610947816109426120e6565b611b9c565b5b610987576040517f08c379a000000000000000000000000000000000000000000000000000000000815260040161097e90614057565b60405180910390fd5b61099183836120ee565b505050565b6109a76109a16120e6565b826121a7565b6109e6576040517f08c379a00000000000000000000000000000000000000000000000000000000081526004016109dd906140e9565b60405180910390fd5b6109f183838361223c565b505050565b610a118383836040518060200160405280600081525061104e565b505050565b60128181548110610a2657600080fd5b9060005260206000209060090201600091509050806000015490806001018054610a4f90613f22565b80601f0160208091040260200160405190810160405280929190818152602001828054610a7b90613f22565b8015610ac85780601f10610a9d57610100808354040283529160200191610ac8565b820191906000526020600020905b815481529060010190602001808311610aab57829003601f168201915b505050505090806002018054610add90613f22565b80601f0160208091040260200160405190810160405280929190818152602001828054610b0990613f22565b8015610b565780601f10610b2b57610100808354040283529160200191610b56565b820191906000526020600020905b815481529060010190602001808311610b3957829003601f168201915b5050505050908060030154908060040154908060050154908060060154908060070154908060080154905089565b6000610b8f83611b12565b90506000610b9c83611b57565b90506000610ba985611c30565b9050610bb88585858585612535565b5050505050565b600080610bcb8361266c565b9050600073ffffffffffffffffffffffffffffffffffffffff168173ffffffffffffffffffffffffffffffffffffffff1603610c3c576040517f08c379a0000000000000000000000000000000000000000000000000000000008152600401610c3390614155565b60405180910390fd5b80915050919050565b60008073ffffffffffffffffffffffffffffffffffffffff168273ffffffffffffffffffffffffffffffffffffffff1603610cb5576040517f08c379a0000000000000000000000000000000000000000000000000000000008152600401610cac906141e7565b60405180910390fd5b600360008373ffffffffffffffffffffffffffffffffffffffff1673ffffffffffffffffffffffffffffffffffffffff168152602001908152602001600020549050919050565b60146020528060005260406000206000915090505481565b606060018054610d2390613f22565b80601f0160208091040260200160405190810160405280929190818152602001828054610d4f90613f22565b8015610d9c5780601f10610d7157610100808354040283529160200191610d9c565b820191906000526020600020905b815481529060010190602001808311610d7f57829003601f168201915b5050505050905090565b6013602052806000526040600020600091509050806000015490806001018054610dcf90613f22565b80601f0160208091040260200160405190810160405280929190818152602001828054610dfb90613f22565b8015610e485780601f10610e1d57610100808354040283529160200191610e48565b820191906000526020600020905b815481529060010190602001808311610e2b57829003601f168201915b505050505090806002018054610e5d90613f22565b80601f0160208091040260200160405190810160405280929190818152602001828054610e8990613f22565b8015610ed65780601f10610eab57610100808354040283529160200191610ed6565b820191906000526020600020905b815481529060010190602001808311610eb957829003601f168201915b5050505050908060030154908060040154908060050154908060060154908060070154908060080154905089565b610f16610f0f6120e6565b83836126a9565b5050565b600c806000018054610f2b90613f22565b80601f0160208091040260200160405190810160405280929190818152602001828054610f5790613f22565b8015610fa45780601f10610f7957610100808354040283529160200191610fa4565b820191906000526020600020905b815481529060010190602001808311610f8757829003601f168201915b505050505090806001018054610fb990613f22565b80601f0160208091040260200160405190810160405280929190818152602001828054610fe590613f22565b80156110325780601f1061100757610100808354040283529160200191611032565b820191906000526020600020905b81548152906001019060200180831161101557829003601f168201915b5050505050908060020154908060030154908060040154905085565b61105f6110596120e6565b836121a7565b61109e576040517f08c379a0000000000000000000000000000000000000000000000000000000008152600401611095906140e9565b60405180910390fd5b6110aa84848484612815565b50505050565b60606012805480602002602001604051908101604052809291908181526020016000905b828210156112715783829060005260206000209060090201604051806101200160405290816000820154815260200160018201805461111290613f22565b80601f016020809104026020016040519081016040528092919081815260200182805461113e90613f22565b801561118b5780601f106111605761010080835404028352916020019161118b565b820191906000526020600020905b81548152906001019060200180831161116e57829003601f168201915b505050505081526020016002820180546111a490613f22565b80601f01602080910402602001604051908101604052809291908181526020018280546111d090613f22565b801561121d5780601f106111f25761010080835404028352916020019161121d565b820191906000526020600020905b81548152906001019060200180831161120057829003601f168201915b505050505081526020016003820154815260200160048201548152602001600582015481526020016006820154815260200160078201548152602001600882015481525050815260200190600101906110d4565b50505050905090565b606060006013600084815260200190815260200160002060405180610120016040529081600082015481526020016001820180546112b790613f22565b80601f01602080910402602001604051908101604052809291908181526020018280546112e390613f22565b80156113305780601f1061130557610100808354040283529160200191611330565b820191906000526020600020905b81548152906001019060200180831161131357829003601f168201915b5050505050815260200160028201805461134990613f22565b80601f016020809104026020016040519081016040528092919081815260200182805461137590613f22565b80156113c25780601f10611397576101008083540402835291602001916113c2565b820191906000526020600020905b8154815290600101906020018083116113a557829003601f168201915b505050505081526020016003820154815260200160048201548152602001600582015481526020016006820154815260200160078201548152602001600882015481525050905060006114188260600151612871565b905060006114298360800151612871565b9050600061143a8460a00151612871565b9050600061144b8560c00151612871565b9050600061145c8660e00151612871565b905060006114a6876020015188604001516114768c612871565b89898989896040516020016114929897969594939291906145d3565b60405160208183030381529060405261293f565b90506000816040516020016114bb91906146f4565b60405160208183030381529060405290508098505050505050505050919050565b6114e46132f9565b6000601460003373ffffffffffffffffffffffffffffffffffffffff1673ffffffffffffffffffffffffffffffffffffffff16815260200190815260200160002054905060008111156116c25760136000828152602001908152602001600020604051806101200160405290816000820154815260200160018201805461156a90613f22565b80601f016020809104026020016040519081016040528092919081815260200182805461159690613f22565b80156115e35780601f106115b8576101008083540402835291602001916115e3565b820191906000526020600020905b8154815290600101906020018083116115c657829003601f168201915b505050505081526020016002820180546115fc90613f22565b80601f016020809104026020016040519081016040528092919081815260200182805461162890613f22565b80156116755780601f1061164a57610100808354040283529160200191611675565b820191906000526020600020905b81548152906001019060200180831161165857829003601f168201915b5050505050815260200160038201548152602001600482015481526020016005820154815260200160068201548152602001600782015481526020016008820154815250509150506116d0565b6116ca6132f9565b80925050505b90565b6000601460003373ffffffffffffffffffffffffffffffffffffffff1673ffffffffffffffffffffffffffffffffffffffff16815260200190815260200160002054905060006013600083815260200190815260200160002090506117e66040518060600160405280603c8152602001615255603c913982600101805461175990613f22565b80601f016020809104026020016040519081016040528092919081815260200182805461178590613f22565b80156117d25780601f106117a7576101008083540402835291602001916117d2565b820191906000526020600020905b8154815290600101906020018083116117b557829003601f168201915b505050505083600301548460050154612ad6565b6118be6040518060400160405280601b81526020017f426f73732025732068617320257320485020616e642025732041440000000000815250600c600001805461182f90613f22565b80601f016020809104026020016040519081016040528092919081815260200182805461185b90613f22565b80156118a85780601f1061187d576101008083540402835291602001916118a8565b820191906000526020600020905b81548152906001019060200180831161188b57829003601f168201915b5050505050600c60020154600c60040154612ad6565b6000816003015411611905576040517f08c379a00000000000000000000000000000000000000000000000000000000081526004016118fc90614788565b60405180910390fd5b6000600c600201541161194d576040517f08c379a00000000000000000000000000000000000000000000000000000000081526004016119449061481a565b60405180910390fd5b8060050154600c600201541015611a20576000600c60020181905550603281600701600082825461197e9190614869565b925050819055506064816007015403611a1b576000816007018190555060018160060160008282546119b09190614869565b92505081905550600a8160050160008282546119cc9190614869565b9250508190555060328160040160008282546119e89190614869565b92505081905550611a1a6040518060600160405280603081526020016152256030913982600501548360040154612b78565b5b611a3f565b8060050154600c60020154611a35919061489d565b600c600201819055505b600c6004015481600301541015611a5f5760008160030181905550611a7d565b600c600401548160030154611a74919061489d565b81600301819055505b611aa460405180606001604052806025815260200161519860259139600c60020154612c17565b611aca6040518060600160405280602881526020016151fd602891398260030154612c17565b7f32bd565ee3f2cb5ddd742bbecd6048d3e9abe90b3827a40c2b72d232e71e3c9d33600c600201548360030154604051611b06939291906148d1565b60405180910390a15050565b60008082604051602001611b269190614908565b6040516020818303038152906040528051906020012060001c9050600a5481611b4f919061494e565b915050919050565b60008082604051602001611b6b9190614908565b6040516020818303038152906040528051906020012060001c905060095481611b94919061494e565b915050919050565b6000600560008473ffffffffffffffffffffffffffffffffffffffff1673ffffffffffffffffffffffffffffffffffffffff16815260200190815260200160002060008373ffffffffffffffffffffffffffffffffffffffff1673ffffffffffffffffffffffffffffffffffffffff16815260200190815260200160002060009054906101000a900460ff16905092915050565b60008082604051602001611c449190614908565b6040516020818303038152906040528051906020012060001c9050600a5481611c6d919061494e565b915050919050565b6000611c816011612cb3565b9050611c8d3382612cc1565b60405180610120016040528083815260200160128481548110611cb357611cb261497f565b5b90600052602060002090600902016001018054611ccf90613f22565b80601f0160208091040260200160405190810160405280929190818152602001828054611cfb90613f22565b8015611d485780601f10611d1d57610100808354040283529160200191611d48565b820191906000526020600020905b815481529060010190602001808311611d2b57829003601f168201915b5050505050815260200160128481548110611d6657611d6561497f565b5b90600052602060002090600902016002018054611d8290613f22565b80601f0160208091040260200160405190810160405280929190818152602001828054611dae90613f22565b8015611dfb5780601f10611dd057610100808354040283529160200191611dfb565b820191906000526020600020905b815481529060010190602001808311611dde57829003601f168201915b5050505050815260200160128481548110611e1957611e1861497f565b5b906000526020600020906009020160030154815260200160128481548110611e4457611e4361497f565b5b906000526020600020906009020160040154815260200160128481548110611e6f57611e6e61497f565b5b906000526020600020906009020160050154815260200160128481548110611e9a57611e9961497f565b5b906000526020600020906009020160060154815260200160128481548110611ec557611ec461497f565b5b906000526020600020906009020160070154815260200160128481548110611ef057611eef61497f565b5b90600052602060002090600902016008015481525060136000838152602001908152602001600020600082015181600001556020820151816001019081611f379190614b5a565b506040820151816002019081611f4d9190614b5a565b50606082015181600301556080820151816004015560a0820151816005015560c0820151816006015560e08201518160070155610100820151816008015590505080601460003373ffffffffffffffffffffffffffffffffffffffff1673ffffffffffffffffffffffffffffffffffffffff16815260200190815260200160002081905550611fdc601161201b565b7f4bc303fd457a97b4691b9af582ce71868a3d258638c8d4f8c60988a0f0bfb8cd33828460405161200f939291906148d1565b60405180910390a15050565b6001816000016000828254019250508190555050565b60007f01ffc9a7000000000000000000000000000000000000000000000000000000007bffffffffffffffffffffffffffffffffffffffffffffffffffffffff1916827bffffffffffffffffffffffffffffffffffffffffffffffffffffffff1916149050919050565b6120a481612cdf565b6120e3576040517f08c379a00000000000000000000000000000000000000000000000000000000081526004016120da90614155565b60405180910390fd5b50565b600033905090565b816004600083815260200190815260200160002060006101000a81548173ffffffffffffffffffffffffffffffffffffffff021916908373ffffffffffffffffffffffffffffffffffffffff160217905550808273ffffffffffffffffffffffffffffffffffffffff1661216183610bbf565b73ffffffffffffffffffffffffffffffffffffffff167f8c5be1e5ebec7d5bd14f71427d1e84f3dd0314c0f7b2291e5b200ac8c7c3b92560405160405180910390a45050565b6000806121b383610bbf565b90508073ffffffffffffffffffffffffffffffffffffffff168473ffffffffffffffffffffffffffffffffffffffff1614806121f557506121f48185611b9c565b5b8061223357508373ffffffffffffffffffffffffffffffffffffffff1661221b84610839565b73ffffffffffffffffffffffffffffffffffffffff16145b91505092915050565b8273ffffffffffffffffffffffffffffffffffffffff1661225c82610bbf565b73ffffffffffffffffffffffffffffffffffffffff16146122b2576040517f08c379a00000000000000000000000000000000000000000000000000000000081526004016122a990614c9e565b60405180910390fd5b600073ffffffffffffffffffffffffffffffffffffffff168273ffffffffffffffffffffffffffffffffffffffff1603612321576040517f08c379a000000000000000000000000000000000000000000000000000000000815260040161231890614d30565b60405180910390fd5b61232e8383836001612d20565b8273ffffffffffffffffffffffffffffffffffffffff1661234e82610bbf565b73ffffffffffffffffffffffffffffffffffffffff16146123a4576040517f08c379a000000000000000000000000000000000000000000000000000000000815260040161239b90614c9e565b60405180910390fd5b6004600082815260200190815260200160002060006101000a81549073ffffffffffffffffffffffffffffffffffffffff02191690556001600360008573ffffffffffffffffffffffffffffffffffffffff1673ffffffffffffffffffffffffffffffffffffffff168152602001908152602001600020600082825403925050819055506001600360008473ffffffffffffffffffffffffffffffffffffffff1673ffffffffffffffffffffffffffffffffffffffff16815260200190815260200160002060008282540192505081905550816002600083815260200190815260200160002060006101000a81548173ffffffffffffffffffffffffffffffffffffffff021916908373ffffffffffffffffffffffffffffffffffffffff160217905550808273ffffffffffffffffffffffffffffffffffffffff168473ffffffffffffffffffffffffffffffffffffffff167fddf252ad1be2c89b69c2b068fc378daa952ba7f163c4a11628f55a4df523b3ef60405160405180910390a46125308383836001612d26565b505050565b60006125416011612cb3565b9050601260405180610120016040528083815260200188815260200187815260200185815260200185815260200184815260200160008152602001600081526020018681525090806001815401808255809150506001900390600052602060002090600902016000909190919091506000820151816000015560208201518160010190816125cf9190614b5a565b5060408201518160020190816125e59190614b5a565b50606082015181600301556080820151816004015560a0820151816005015560c0820151816006015560e08201518160070155610100820151816008015550507f157698efd8fe544ead39b34934096982d8754d8a617737ed8e76ee1b880c37d5818786868660405161265c959493929190614d50565b60405180910390a1505050505050565b60006002600083815260200190815260200160002060009054906101000a900473ffffffffffffffffffffffffffffffffffffffff169050919050565b8173ffffffffffffffffffffffffffffffffffffffff168373ffffffffffffffffffffffffffffffffffffffff1603612717576040517f08c379a000000000000000000000000000000000000000000000000000000000815260040161270e90614df6565b60405180910390fd5b80600560008573ffffffffffffffffffffffffffffffffffffffff1673ffffffffffffffffffffffffffffffffffffffff16815260200190815260200160002060008473ffffffffffffffffffffffffffffffffffffffff1673ffffffffffffffffffffffffffffffffffffffff16815260200190815260200160002060006101000a81548160ff0219169083151502179055508173ffffffffffffffffffffffffffffffffffffffff168373ffffffffffffffffffffffffffffffffffffffff167f17307eab39ab6107e8899845ad3d59bd9653f200f220920489ca2b5937696c318360405161280891906133f9565b60405180910390a3505050565b61282084848461223c565b61282c84848484612d2c565b61286b576040517f08c379a000000000000000000000000000000000000000000000000000000000815260040161286290614e88565b60405180910390fd5b50505050565b60606000600161288084612eb3565b01905060008167ffffffffffffffff81111561289f5761289e6137f0565b5b6040519080825280601f01601f1916602001820160405280156128d15781602001600182028036833780820191505090505b509050600082602001820190505b600115612934578080600190039150507f3031323334353637383961626364656600000000000000000000000000000000600a86061a8153600a85816129285761292761491f565b5b049450600085036128df575b819350505050919050565b6060600082519050600081036129675760405180602001604052806000815250915050612ad1565b600060036002836129789190614869565b6129829190614ea8565b600461298e9190614ed9565b9050600060208261299f9190614869565b67ffffffffffffffff8111156129b8576129b76137f0565b5b6040519080825280601f01601f1916602001820160405280156129ea5781602001600182028036833780820191505090505b50905060006040518060600160405280604081526020016151bd604091399050600181016020830160005b86811015612a8e5760038101905062ffffff818a015116603f8160121c168401518060081b905060ff603f83600c1c1686015116810190508060081b905060ff603f8360061c1686015116810190508060081b905060ff603f831686015116810190508060e01b90508084526004840193505050612a15565b506003860660018114612aa85760028114612ab857612ac3565b613d3d60f01b6002830352612ac3565b603d60f81b60018303525b508484525050819450505050505b919050565b612b7284848484604051602401612af09493929190614f1b565b6040516020818303038152906040527ff45d7d2c000000000000000000000000000000000000000000000000000000007bffffffffffffffffffffffffffffffffffffffffffffffffffffffff19166020820180517bffffffffffffffffffffffffffffffffffffffffffffffffffffffff8381831617835250505050613006565b50505050565b612c12838383604051602401612b9093929190614f6e565b6040516020818303038152906040527fca47c4eb000000000000000000000000000000000000000000000000000000007bffffffffffffffffffffffffffffffffffffffffffffffffffffffff19166020820180517bffffffffffffffffffffffffffffffffffffffffffffffffffffffff8381831617835250505050613006565b505050565b612caf8282604051602401612c2d929190614fac565b6040516020818303038152906040527fb60e72cc000000000000000000000000000000000000000000000000000000007bffffffffffffffffffffffffffffffffffffffffffffffffffffffff19166020820180517bffffffffffffffffffffffffffffffffffffffffffffffffffffffff8381831617835250505050613006565b5050565b600081600001549050919050565b612cdb82826040518060200160405280600081525061302f565b5050565b60008073ffffffffffffffffffffffffffffffffffffffff16612d018361266c565b73ffffffffffffffffffffffffffffffffffffffff1614159050919050565b50505050565b50505050565b6000612d4d8473ffffffffffffffffffffffffffffffffffffffff1661308a565b15612ea6578373ffffffffffffffffffffffffffffffffffffffff1663150b7a02612d766120e6565b8786866040518563ffffffff1660e01b8152600401612d989493929190615031565b6020604051808303816000875af1925050508015612dd457506040513d601f19601f82011682018060405250810190612dd19190615092565b60015b612e56573d8060008114612e04576040519150601f19603f3d011682016040523d82523d6000602084013e612e09565b606091505b506000815103612e4e576040517f08c379a0000000000000000000000000000000000000000000000000000000008152600401612e4590614e88565b60405180910390fd5b805181602001fd5b63150b7a0260e01b7bffffffffffffffffffffffffffffffffffffffffffffffffffffffff1916817bffffffffffffffffffffffffffffffffffffffffffffffffffffffff191614915050612eab565b600190505b949350505050565b600080600090507a184f03e93ff9f4daa797ed6e38ed64bf6a1f0100000000000000008310612f11577a184f03e93ff9f4daa797ed6e38ed64bf6a1f0100000000000000008381612f0757612f0661491f565b5b0492506040810190505b6d04ee2d6d415b85acef81000000008310612f4e576d04ee2d6d415b85acef81000000008381612f4457612f4361491f565b5b0492506020810190505b662386f26fc100008310612f7d57662386f26fc100008381612f7357612f7261491f565b5b0492506010810190505b6305f5e1008310612fa6576305f5e1008381612f9c57612f9b61491f565b5b0492506008810190505b6127108310612fcb576127108381612fc157612fc061491f565b5b0492506004810190505b60648310612fee5760648381612fe457612fe361491f565b5b0492506002810190505b600a8310612ffd576001810190505b80915050919050565b60008151905060006a636f6e736f6c652e6c6f679050602083016000808483855afa5050505050565b61303983836130ad565b6130466000848484612d2c565b613085576040517f08c379a000000000000000000000000000000000000000000000000000000000815260040161307c90614e88565b60405180910390fd5b505050565b6000808273ffffffffffffffffffffffffffffffffffffffff163b119050919050565b600073ffffffffffffffffffffffffffffffffffffffff168273ffffffffffffffffffffffffffffffffffffffff160361311c576040517f08c379a00000000000000000000000000000000000000000000000000000000081526004016131139061510b565b60405180910390fd5b61312581612cdf565b15613165576040517f08c379a000000000000000000000000000000000000000000000000000000000815260040161315c90615177565b60405180910390fd5b613173600083836001612d20565b61317c81612cdf565b156131bc576040517f08c379a00000000000000000000000000000000000000000000000000000000081526004016131b390615177565b60405180910390fd5b6001600360008473ffffffffffffffffffffffffffffffffffffffff1673ffffffffffffffffffffffffffffffffffffffff16815260200190815260200160002060008282540192505081905550816002600083815260200190815260200160002060006101000a81548173ffffffffffffffffffffffffffffffffffffffff021916908373ffffffffffffffffffffffffffffffffffffffff160217905550808273ffffffffffffffffffffffffffffffffffffffff16600073ffffffffffffffffffffffffffffffffffffffff167fddf252ad1be2c89b69c2b068fc378daa952ba7f163c4a11628f55a4df523b3ef60405160405180910390a46132c6600083836001612d26565b5050565b6040518060a0016040528060608152602001606081526020016000815260200160008152602001600081525090565b6040518061012001604052806000815260200160608152602001606081526020016000815260200160008152602001600081526020016000815260200160008152602001600081525090565b6000604051905090565b600080fd5b600080fd5b60007fffffffff0000000000000000000000000000000000000000000000000000000082169050919050565b61338e81613359565b811461339957600080fd5b50565b6000813590506133ab81613385565b92915050565b6000602082840312156133c7576133c661334f565b5b60006133d58482850161339c565b91505092915050565b60008115159050919050565b6133f3816133de565b82525050565b600060208201905061340e60008301846133ea565b92915050565b600081519050919050565b600082825260208201905092915050565b60005b8381101561344e578082015181840152602081019050613433565b60008484015250505050565b6000601f19601f8301169050919050565b600061347682613414565b613480818561341f565b9350613490818560208601613430565b6134998161345a565b840191505092915050565b6000819050919050565b6134b7816134a4565b82525050565b600060a08301600083015184820360008601526134da828261346b565b915050602083015184820360208601526134f4828261346b565b915050604083015161350960408601826134ae565b50606083015161351c60608601826134ae565b50608083015161352f60808601826134ae565b508091505092915050565b6000602082019050818103600083015261355481846134bd565b905092915050565b600082825260208201905092915050565b600061357882613414565b613582818561355c565b9350613592818560208601613430565b61359b8161345a565b840191505092915050565b600060208201905081810360008301526135c0818461356d565b905092915050565b6135d1816134a4565b81146135dc57600080fd5b50565b6000813590506135ee816135c8565b92915050565b60006020828403121561360a5761360961334f565b5b6000613618848285016135df565b91505092915050565b600073ffffffffffffffffffffffffffffffffffffffff82169050919050565b600061364c82613621565b9050919050565b61365c81613641565b82525050565b60006020820190506136776000830184613653565b92915050565b61368681613641565b811461369157600080fd5b50565b6000813590506136a38161367d565b92915050565b600080604083850312156136c0576136bf61334f565b5b60006136ce85828601613694565b92505060206136df858286016135df565b9150509250929050565b6000806000606084860312156137025761370161334f565b5b600061371086828701613694565b935050602061372186828701613694565b9250506040613732868287016135df565b9150509250925092565b613745816134a4565b82525050565b600061012082019050613761600083018c61373c565b8181036020830152613773818b61356d565b90508181036040830152613787818a61356d565b9050613796606083018961373c565b6137a3608083018861373c565b6137b060a083018761373c565b6137bd60c083018661373c565b6137ca60e083018561373c565b6137d861010083018461373c565b9a9950505050505050505050565b600080fd5b600080fd5b7f4e487b7100000000000000000000000000000000000000000000000000000000600052604160045260246000fd5b6138288261345a565b810181811067ffffffffffffffff82111715613847576138466137f0565b5b80604052505050565b600061385a613345565b9050613866828261381f565b919050565b600067ffffffffffffffff821115613886576138856137f0565b5b61388f8261345a565b9050602081019050919050565b82818337600083830152505050565b60006138be6138b98461386b565b613850565b9050828152602081018484840111156138da576138d96137eb565b5b6138e584828561389c565b509392505050565b600082601f830112613902576139016137e6565b5b81356139128482602086016138ab565b91505092915050565b600080604083850312156139325761393161334f565b5b600083013567ffffffffffffffff8111156139505761394f613354565b5b61395c858286016138ed565b925050602083013567ffffffffffffffff81111561397d5761397c613354565b5b613989858286016138ed565b9150509250929050565b6000602082840312156139a9576139a861334f565b5b60006139b784828501613694565b91505092915050565b60006020820190506139d5600083018461373c565b92915050565b6139e4816133de565b81146139ef57600080fd5b50565b600081359050613a01816139db565b92915050565b60008060408385031215613a1e57613a1d61334f565b5b6000613a2c85828601613694565b9250506020613a3d858286016139f2565b9150509250929050565b600060a0820190508181036000830152613a61818861356d565b90508181036020830152613a75818761356d565b9050613a84604083018661373c565b613a91606083018561373c565b613a9e608083018461373c565b9695505050505050565b600067ffffffffffffffff821115613ac357613ac26137f0565b5b613acc8261345a565b9050602081019050919050565b6000613aec613ae784613aa8565b613850565b905082815260208101848484011115613b0857613b076137eb565b5b613b1384828561389c565b509392505050565b600082601f830112613b3057613b2f6137e6565b5b8135613b40848260208601613ad9565b91505092915050565b60008060008060808587031215613b6357613b6261334f565b5b6000613b7187828801613694565b9450506020613b8287828801613694565b9350506040613b93878288016135df565b925050606085013567ffffffffffffffff811115613bb457613bb3613354565b5b613bc087828801613b1b565b91505092959194509250565b600081519050919050565b600082825260208201905092915050565b6000819050602082019050919050565b600061012083016000830151613c1160008601826134ae565b5060208301518482036020860152613c29828261346b565b91505060408301518482036040860152613c43828261346b565b9150506060830151613c5860608601826134ae565b506080830151613c6b60808601826134ae565b5060a0830151613c7e60a08601826134ae565b5060c0830151613c9160c08601826134ae565b5060e0830151613ca460e08601826134ae565b50610100830151613cb96101008601826134ae565b508091505092915050565b6000613cd08383613bf8565b905092915050565b6000602082019050919050565b6000613cf082613bcc565b613cfa8185613bd7565b935083602082028501613d0c85613be8565b8060005b85811015613d485784840389528151613d298582613cc4565b9450613d3483613cd8565b925060208a01995050600181019050613d10565b50829750879550505050505092915050565b60006020820190508181036000830152613d748184613ce5565b905092915050565b600061012083016000830151613d9560008601826134ae565b5060208301518482036020860152613dad828261346b565b91505060408301518482036040860152613dc7828261346b565b9150506060830151613ddc60608601826134ae565b506080830151613def60808601826134ae565b5060a0830151613e0260a08601826134ae565b5060c0830151613e1560c08601826134ae565b5060e0830151613e2860e08601826134ae565b50610100830151613e3d6101008601826134ae565b508091505092915050565b60006020820190508181036000830152613e628184613d7c565b905092915050565b600060208284031215613e8057613e7f61334f565b5b600082013567ffffffffffffffff811115613e9e57613e9d613354565b5b613eaa848285016138ed565b91505092915050565b60008060408385031215613eca57613ec961334f565b5b6000613ed885828601613694565b9250506020613ee985828601613694565b9150509250929050565b7f4e487b7100000000000000000000000000000000000000000000000000000000600052602260045260246000fd5b60006002820490506001821680613f3a57607f821691505b602082108103613f4d57613f4c613ef3565b5b50919050565b7f4552433732313a20617070726f76616c20746f2063757272656e74206f776e6560008201527f7200000000000000000000000000000000000000000000000000000000000000602082015250565b6000613faf60218361355c565b9150613fba82613f53565b604082019050919050565b60006020820190508181036000830152613fde81613fa2565b9050919050565b7f4552433732313a20617070726f76652063616c6c6572206973206e6f7420746f60008201527f6b656e206f776e6572206f7220617070726f76656420666f7220616c6c000000602082015250565b6000614041603d8361355c565b915061404c82613fe5565b604082019050919050565b6000602082019050818103600083015261407081614034565b9050919050565b7f4552433732313a2063616c6c6572206973206e6f7420746f6b656e206f776e6560008201527f72206f7220617070726f76656400000000000000000000000000000000000000602082015250565b60006140d3602d8361355c565b91506140de82614077565b604082019050919050565b60006020820190508181036000830152614102816140c6565b9050919050565b7f4552433732313a20696e76616c696420746f6b656e2049440000000000000000600082015250565b600061413f60188361355c565b915061414a82614109565b602082019050919050565b6000602082019050818103600083015261416e81614132565b9050919050565b7f4552433732313a2061646472657373207a65726f206973206e6f74206120766160008201527f6c6964206f776e65720000000000000000000000000000000000000000000000602082015250565b60006141d160298361355c565b91506141dc82614175565b604082019050919050565b60006020820190508181036000830152614200816141c4565b9050919050565b600081905092915050565b7f7b226e616d65223a202200000000000000000000000000000000000000000000600082015250565b6000614248600a83614207565b915061425382614212565b600a82019050919050565b600061426982613414565b6142738185614207565b9350614283818560208601613430565b80840191505092915050565b7f202d2d204e465420233a20000000000000000000000000000000000000000000600082015250565b60006142c5600b83614207565b91506142d08261428f565b600b82019050919050565b7f222c20226465736372697074696f6e223a20225468697320697320616e204e4660008201527f542074686174206c65747320796f7520656e74657220746865205a6f6d62696560208201527f204172656e61222c2022696d616765223a202200000000000000000000000000604082015250565b600061435d605383614207565b9150614368826142db565b605382019050919050565b7f222c202261747472696275746573223a205b207b202274726169745f7479706560008201527f223a20224865616c746820506f696e7473222c202276616c7565223a20000000602082015250565b60006143cf603d83614207565b91506143da82614373565b603d82019050919050565b7f2c20226d61785f76616c7565223a000000000000000000000000000000000000600082015250565b600061441b600e83614207565b9150614426826143e5565b600e82019050919050565b7f7d2c207b202274726169745f74797065223a202241747461636b2044616d616760008201527f65222c202276616c7565223a2000000000000000000000000000000000000000602082015250565b600061448d602d83614207565b915061449882614431565b602d82019050919050565b7f7d2c207b202274726169745f74797065223a20226c6576656c222c202276616c60008201527f7565223a20000000000000000000000000000000000000000000000000000000602082015250565b60006144ff602583614207565b915061450a826144a3565b602582019050919050565b7f7d2c207b202274726169745f74797065223a2022657870657269656e6365222c60008201527f202276616c7565223a2000000000000000000000000000000000000000000000602082015250565b6000614571602a83614207565b915061457c82614515565b602a82019050919050565b7f7d205d7d00000000000000000000000000000000000000000000000000000000600082015250565b60006145bd600483614207565b91506145c882614587565b600482019050919050565b60006145de8261423b565b91506145ea828b61425e565b91506145f6828a61425e565b9150614601826142b8565b915061460d828961425e565b915061461882614350565b9150614623826143c2565b915061462f828861425e565b915061463a8261440e565b9150614646828761425e565b915061465182614480565b915061465d828661425e565b9150614668826144f2565b9150614674828561425e565b915061467f82614564565b915061468b828461425e565b9150614696826145b0565b91508190509998505050505050505050565b7f646174613a6170706c69636174696f6e2f6a736f6e3b6261736536342c000000600082015250565b60006146de601d83614207565b91506146e9826146a8565b601d82019050919050565b60006146ff826146d1565b915061470b828461425e565b915081905092915050565b7f4572726f723a205a6f6d626965206d757374206861766520485020746f20617460008201527f7461636b20626f73732e00000000000000000000000000000000000000000000602082015250565b6000614772602a8361355c565b915061477d82614716565b604082019050919050565b600060208201905081810360008301526147a181614765565b9050919050565b7f4572726f723a20626f7373206d757374206861766520485020746f206174746160008201527f636b206368617261637465722e00000000000000000000000000000000000000602082015250565b6000614804602d8361355c565b915061480f826147a8565b604082019050919050565b60006020820190508181036000830152614833816147f7565b9050919050565b7f4e487b7100000000000000000000000000000000000000000000000000000000600052601160045260246000fd5b6000614874826134a4565b915061487f836134a4565b92508282019050808211156148975761489661483a565b5b92915050565b60006148a8826134a4565b91506148b3836134a4565b92508282039050818111156148cb576148ca61483a565b5b92915050565b60006060820190506148e66000830186613653565b6148f3602083018561373c565b614900604083018461373c565b949350505050565b6000614914828461425e565b915081905092915050565b7f4e487b7100000000000000000000000000000000000000000000000000000000600052601260045260246000fd5b6000614959826134a4565b9150614964836134a4565b9250826149745761497361491f565b5b828206905092915050565b7f4e487b7100000000000000000000000000000000000000000000000000000000600052603260045260246000fd5b60008190508160005260206000209050919050565b60006020601f8301049050919050565b600082821b905092915050565b600060088302614a107fffffffffffffffffffffffffffffffffffffffffffffffffffffffffffffffff826149d3565b614a1a86836149d3565b95508019841693508086168417925050509392505050565b6000819050919050565b6000614a57614a52614a4d846134a4565b614a32565b6134a4565b9050919050565b6000819050919050565b614a7183614a3c565b614a85614a7d82614a5e565b8484546149e0565b825550505050565b600090565b614a9a614a8d565b614aa5818484614a68565b505050565b5b81811015614ac957614abe600082614a92565b600181019050614aab565b5050565b601f821115614b0e57614adf816149ae565b614ae8846149c3565b81016020851015614af7578190505b614b0b614b03856149c3565b830182614aaa565b50505b505050565b600082821c905092915050565b6000614b3160001984600802614b13565b1980831691505092915050565b6000614b4a8383614b20565b9150826002028217905092915050565b614b6382613414565b67ffffffffffffffff811115614b7c57614b7b6137f0565b5b614b868254613f22565b614b91828285614acd565b600060209050601f831160018114614bc45760008415614bb2578287015190505b614bbc8582614b3e565b865550614c24565b601f198416614bd2866149ae565b60005b82811015614bfa57848901518255600182019150602085019450602081019050614bd5565b86831015614c175784890151614c13601f891682614b20565b8355505b6001600288020188555050505b505050505050565b7f4552433732313a207472616e736665722066726f6d20696e636f72726563742060008201527f6f776e6572000000000000000000000000000000000000000000000000000000602082015250565b6000614c8860258361355c565b9150614c9382614c2c565b604082019050919050565b60006020820190508181036000830152614cb781614c7b565b9050919050565b7f4552433732313a207472616e7366657220746f20746865207a65726f2061646460008201527f7265737300000000000000000000000000000000000000000000000000000000602082015250565b6000614d1a60248361355c565b9150614d2582614cbe565b604082019050919050565b60006020820190508181036000830152614d4981614d0d565b9050919050565b600060a082019050614d65600083018861373c565b8181036020830152614d77818761356d565b9050614d86604083018661373c565b614d93606083018561373c565b614da0608083018461373c565b9695505050505050565b7f4552433732313a20617070726f766520746f2063616c6c657200000000000000600082015250565b6000614de060198361355c565b9150614deb82614daa565b602082019050919050565b60006020820190508181036000830152614e0f81614dd3565b9050919050565b7f4552433732313a207472616e7366657220746f206e6f6e20455243373231526560008201527f63656976657220696d706c656d656e7465720000000000000000000000000000602082015250565b6000614e7260328361355c565b9150614e7d82614e16565b604082019050919050565b60006020820190508181036000830152614ea181614e65565b9050919050565b6000614eb3826134a4565b9150614ebe836134a4565b925082614ece57614ecd61491f565b5b828204905092915050565b6000614ee4826134a4565b9150614eef836134a4565b9250828202614efd816134a4565b91508282048414831517614f1457614f1361483a565b5b5092915050565b60006080820190508181036000830152614f35818761356d565b90508181036020830152614f49818661356d565b9050614f58604083018561373c565b614f65606083018461373c565b95945050505050565b60006060820190508181036000830152614f88818661356d565b9050614f97602083018561373c565b614fa4604083018461373c565b949350505050565b60006040820190508181036000830152614fc6818561356d565b9050614fd5602083018461373c565b9392505050565b600081519050919050565b600082825260208201905092915050565b600061500382614fdc565b61500d8185614fe7565b935061501d818560208601613430565b6150268161345a565b840191505092915050565b60006080820190506150466000830187613653565b6150536020830186613653565b615060604083018561373c565b81810360608301526150728184614ff8565b905095945050505050565b60008151905061508c81613385565b92915050565b6000602082840312156150a8576150a761334f565b5b60006150b68482850161507d565b91505092915050565b7f4552433732313a206d696e7420746f20746865207a65726f2061646472657373600082015250565b60006150f560208361355c565b9150615100826150bf565b602082019050919050565b60006020820190508181036000830152615124816150e8565b9050919050565b7f4552433732313a20746f6b656e20616c7265616479206d696e74656400000000600082015250565b6000615161601c8361355c565b915061516c8261512b565b602082019050919050565b6000602082019050818103600083015261519081615154565b905091905056fe506c617965722061747461636b656420626f73732e204e657720626f73732068703a2025734142434445464748494a4b4c4d4e4f505152535455565758595a6162636465666768696a6b6c6d6e6f707172737475767778797a303132333435363738392b2f426f73732061747461636b656420706c617965722e204e657720706c617965722068703a2025730a596f75206a757374206c6576656c656420757020796f75206e6f77206861766520257320414420616e642025732048500a506c6179657220772f206368617261637465722025732061626f757420746f2061747461636b2e2048617320257320485020616e64202573204144a264697066735822122020f4a6a0a89dc35d82fe36a63d10a030d2163614dd6c6da85ed71d379d35056064736f6c63430008110033",
    "linkReferences": {},
    "deployedLinkReferences": {}
}